{
  "contractName": "HelloWorld",
  "abi": [
    {
      "constant": false,
      "inputs": [],
      "name": "SayHello",
      "outputs": [
        {
          "name": "",
          "type": "string"
        }
      ],
      "payable": false,
      "stateMutability": "nonpayable",
      "type": "function"
    }
  ],
  "bytecode": "0x6060604052341561000f57600080fd5b6101578061001e6000396000f300606060405260043610610041576000357c0100000000000000000000000000000000000000000000000000000000900463ffffffff1680633acb315014610046575b600080fd5b341561005157600080fd5b6100596100d4565b6040518080602001828103825283818151815260200191508051906020019080838360005b8381101561009957808201518184015260208101905061007e565b50505050905090810190601f1680156100c65780820380516001836020036101000a031916815260200191505b509250505060405180910390f35b6100dc610117565b6040805190810160405280600c81526020017f48656c6c6f20576f726c64210000000000000000000000000000000000000000815250905090565b6020604051908101604052806000815250905600a165627a7a723058200f048718c61a410b2a7861e2946eccc77d579e25ea6f4782678f00de454499a20029",
  "source": "pragma solidity ^0.4.4;\r\ncontract HelloWorld\r\n{\r\n    function SayHello() returns (string)\r\n    {\r\n        return (\"Hello World!\");\r\n    }\r\n}",
  "sourcePath": "C:\\repos\\Projects\\EthereumDemo\\contracts\\HelloWorld.sol",
  "compiler": {
    "name": "solc",
    "version": "0.4.18+commit.9cf6e910.Emscripten.clang"
  },
  "schemaVersion": "1.0.1",
  "updatedAt": "2017-11-17T05:54:46.823Z"
}