{
  "contractName": "MyGame",
  "abi": [
    {
      "constant": false,
      "inputs": [
        {
          "name": "name",
          "type": "string"
        }
      ],
      "name": "ShowScore",
      "outputs": [
        {
          "name": "",
          "type": "int256"
        }
      ],
      "payable": false,
      "stateMutability": "nonpayable",
      "type": "function"
    }
  ],
  "bytecode": "0x6060604052341561000f57600080fd5b6101fc8061001e6000396000f300606060405260043610610041576000357c0100000000000000000000000000000000000000000000000000000000900463ffffffff168063f06c5f0f14610046575b600080fd5b341561005157600080fd5b6100a1600480803590602001908201803590602001908080601f016020809104026020016040519081016040528093929190818152602001838380828437820191505050505050919050506100b7565b6040518082815260200191505060405180910390f35b600080732c52867bc221de7b3a101a5c5381333f535598b290508073ffffffffffffffffffffffffffffffffffffffff1663308d1964846000604051602001526040518263ffffffff167c01000000000000000000000000000000000000000000000000000000000281526004018080602001828103825283818151815260200191508051906020019080838360005b83811015610162578082015181840152602081019050610147565b50505050905090810190601f16801561018f5780820380516001836020036101000a031916815260200191505b5092505050602060405180830381600087803b15156101ad57600080fd5b6102c65a03f115156101be57600080fd5b505050604051805190509150509190505600a165627a7a723058204bf1d11cd1dfce06e6f8c61692044b40f4c5581ce0b1e85cf4ebbf3867237df80029",
  "source": "pragma solidity ^0.4.4;\r\ncontract IScoreStore{\r\n    function GetScore(string name) public returns (int);\r\n}\r\ncontract MyGame{\r\n    function ShowScore(string name) public returns (int)\r\n    {\r\n        IScoreStore scoreStore = IScoreStore(0x2c52867bc221de7b3a101a5c5381333f535598b2);\r\n        return scoreStore.GetScore(name);\r\n    }\r\n}",
  "sourcePath": "C:\\repos\\Projects\\EthereumDemo\\MyGame\\contracts\\MyGame.sol",
  "compiler": {
    "name": "solc",
    "version": "0.4.18+commit.9cf6e910.Emscripten.clang"
  },
  "schemaVersion": "1.0.1",
  "updatedAt": "2017-11-18T21:26:07.533Z"
}